:020000040000FA
:10000000122882073F3406345B344F3466346D3433
:100010007D3407347F346F3477347C3439345E3444
:1000200008347134831688011030850009140710D4
:10003000871007138717F030860028308100803042
:100040009F00193099001812181598168312A930BC
:100050009F00981718168701A001A101A201A30112
:10006000A801B601BD01BC01BF01BE01C0016621EE
:10007000FB20A2216C21A900FF3A03193828323055
:10008000B700FB20B70B412829080A3A031D512865
:1000900036140130A800A401A501A601A70187011B
:1000A0009D2829080F3A031D8328281C9D28A40891
:1000B00003197F280630240203187F280530240204
:1000C000031D6828A508031D7F28A708031D7F2896
:1000D0002408B2002508B3002608B4002708B5009C
:1000E0002708BC00BD01240803197B28B7000A308B
:1000F000BD07B70B77282508BD07A801A428B601BE
:10010000A80188013828281C9D2829080E3A0319BF
:100110008D280A30290203189D282508A4002608E6
:10012000A5002708A6002908A7002408A000250884
:10013000A1002608A2002708A300FB20A2216C2111
:10014000FF3A031D9D2838283208A0003308A1007B
:100150003408A2003508A3001F213021E2201F210E
:10016000B220A42881010F30A000A101A201A301A7
:100170000230AB00C830BA00FB20A221BA0BBC2869
:10018000AB0BBA280108AE00C000AF01B001B1014D
:100190002E08AC0064302C02031CD128AC00AF0A3E
:1001A000CA280A302C02031CD828AC00B00AD12877
:1001B0002C08B1002F08A1003008A2003108A300CC
:1001C0001F210800AD013208B700B7080319EC2859
:1001D0000A30AD07B70BE8283308AD0707108710C2
:1001E0002C082D02031908000318F728F928071412
:1001F000080087140800361C080020080120880029
:1002000005141A2105108801210801208800851491
:100210001A218510880122080120880005151A215D
:100220000511880123080120880085151A218511F0
:1002300088010800C830B800B80B1C29080002303B
:10024000AB00C830B700FB20A2216C210A3A031989
:100250002E29B70B2329AB0B21290800870112286F
:10026000831680309F0083121F151F1935298316AE
:100270001E088312AA001E08AB00831606309F00DA
:1002800083120310AB0CAA0C2A08AC00BF00BE01FD
:10029000AF01B001B10164302C02031C5229AC0043
:1002A000AF0A4B290A302C02031C5929AC00B00AB2
:1002B00052292C08B1003008A0003108A1000E30EE
:1002C000A2000030A3002A08AC000800FB206C212B
:1002D000FF3A031D662908008316F030860083125A
:1002E000FE3086009D21061E0134861E0234061F44
:1002F0000334861F0A34FD3086009D21061E043417
:10030000861E0534061F0634861F0B34FB3086001C
:100310009D21061E0734861E0834061F0934861FD9
:100320000C34F73086009D21061E0E34861E0034E4
:10033000061F0F34861F0D34FF343230B900B90B5D
:100340009F2908008C1E08001A08C100C11BBD2986
:100350004108013A0319D5294108023A0319D7295E
:100360004108033A0319D9294108043A0319DB2942
:100370004108053A0319DD290800411FC029C52994
:1003800041083F39BC00B500080041083F39BD00B5
:10039000B2013D08BB000A303B02031CD229BB005E
:1003A000B20ACB293B08B30008003C08DF293D080E
:1003B000DF293E08DF293F08DF294008DF290C1E1E
:0603C000DF29990008008E
:0403C60000340034CB
:02400E00393F38
:00000001FF
